{
  "_format": "hh-sol-artifact-1",
  "contractName": "MyNFT",
  "sourceName": "contracts/nft.sol",
  "abi": [
    {
      "inputs": [
        {
          "internalType": "address",
          "name": "_royaltyReceiverAddress",
          "type": "address"
        }
      ],
      "stateMutability": "nonpayable",
      "type": "constructor"
    },
    {
      "anonymous": false,
      "inputs": [
        {
          "indexed": true,
          "internalType": "address",
          "name": "owner",
          "type": "address"
        },
        {
          "indexed": true,
          "internalType": "address",
          "name": "approved",
          "type": "address"
        },
        {
          "indexed": true,
          "internalType": "uint256",
          "name": "tokenId",
          "type": "uint256"
        }
      ],
      "name": "Approval",
      "type": "event"
    },
    {
      "anonymous": false,
      "inputs": [
        {
          "indexed": true,
          "internalType": "address",
          "name": "owner",
          "type": "address"
        },
        {
          "indexed": true,
          "internalType": "address",
          "name": "operator",
          "type": "address"
        },
        {
          "indexed": false,
          "internalType": "bool",
          "name": "approved",
          "type": "bool"
        }
      ],
      "name": "ApprovalForAll",
      "type": "event"
    },
    {
      "anonymous": false,
      "inputs": [
        {
          "indexed": true,
          "internalType": "address[]",
          "name": "addresses",
          "type": "address[]"
        }
      ],
      "name": "GiftTokens",
      "type": "event"
    },
    {
      "anonymous": false,
      "inputs": [
        {
          "indexed": true,
          "internalType": "address",
          "name": "minter",
          "type": "address"
        },
        {
          "indexed": true,
          "internalType": "uint256",
          "name": "tokens",
          "type": "uint256"
        }
      ],
      "name": "MintPreSale",
      "type": "event"
    },
    {
      "anonymous": false,
      "inputs": [
        {
          "indexed": true,
          "internalType": "address",
          "name": "minter",
          "type": "address"
        },
        {
          "indexed": true,
          "internalType": "uint256",
          "name": "tokens",
          "type": "uint256"
        }
      ],
      "name": "MintPublicSale",
      "type": "event"
    },
    {
      "anonymous": false,
      "inputs": [
        {
          "indexed": true,
          "internalType": "address",
          "name": "previousOwner",
          "type": "address"
        },
        {
          "indexed": true,
          "internalType": "address",
          "name": "newOwner",
          "type": "address"
        }
      ],
      "name": "OwnershipTransferred",
      "type": "event"
    },
    {
      "anonymous": false,
      "inputs": [
        {
          "indexed": true,
          "internalType": "uint256",
          "name": "tokens",
          "type": "uint256"
        }
      ],
      "name": "ReserveTokens",
      "type": "event"
    },
    {
      "anonymous": false,
      "inputs": [
        {
          "indexed": true,
          "internalType": "string",
          "name": "uri",
          "type": "string"
        }
      ],
      "name": "SetBaseURI",
      "type": "event"
    },
    {
      "anonymous": false,
      "inputs": [
        {
          "indexed": true,
          "internalType": "string",
          "name": "uri",
          "type": "string"
        }
      ],
      "name": "SetCollectionURI",
      "type": "event"
    },
    {
      "anonymous": false,
      "inputs": [
        {
          "indexed": true,
          "internalType": "bytes32",
          "name": "root",
          "type": "bytes32"
        }
      ],
      "name": "SetPreSaleMerkleRoot",
      "type": "event"
    },
    {
      "anonymous": false,
      "inputs": [
        {
          "indexed": true,
          "internalType": "address",
          "name": "_address",
          "type": "address"
        }
      ],
      "name": "SetRoyaltyReceiver",
      "type": "event"
    },
    {
      "anonymous": false,
      "inputs": [
        {
          "indexed": true,
          "internalType": "enum MyNFT.SaleState",
          "name": "state",
          "type": "uint8"
        }
      ],
      "name": "SetSaleState",
      "type": "event"
    },
    {
      "anonymous": false,
      "inputs": [
        {
          "indexed": true,
          "internalType": "address",
          "name": "from",
          "type": "address"
        },
        {
          "indexed": true,
          "internalType": "address",
          "name": "to",
          "type": "address"
        },
        {
          "indexed": true,
          "internalType": "uint256",
          "name": "tokenId",
          "type": "uint256"
        }
      ],
      "name": "Transfer",
      "type": "event"
    },
    {
      "anonymous": false,
      "inputs": [
        {
          "indexed": true,
          "internalType": "address",
          "name": "dest",
          "type": "address"
        }
      ],
      "name": "Withdraw",
      "type": "event"
    },
    {
      "anonymous": false,
      "inputs": [
        {
          "indexed": true,
          "internalType": "address",
          "name": "tokenAddress",
          "type": "address"
        },
        {
          "indexed": true,
          "internalType": "address",
          "name": "dest",
          "type": "address"
        }
      ],
      "name": "WithdrawToken",
      "type": "event"
    },
    {
      "inputs": [],
      "name": "MAX_PRE_SALE_MINTS",
      "outputs": [
        {
          "internalType": "uint256",
          "name": "",
          "type": "uint256"
        }
      ],
      "stateMutability": "view",
      "type": "function"
    },
    {
      "inputs": [],
      "name": "MAX_PUBLIC_SALE_MINTS",
      "outputs": [
        {
          "internalType": "uint256",
          "name": "",
          "type": "uint256"
        }
      ],
      "stateMutability": "view",
      "type": "function"
    },
    {
      "inputs": [],
      "name": "MAX_RESERVE_TOKENS",
      "outputs": [
        {
          "internalType": "uint256",
          "name": "",
          "type": "uint256"
        }
      ],
      "stateMutability": "view",
      "type": "function"
    },
    {
      "inputs": [],
      "name": "MAX_TOKENS_PER_WALLET",
      "outputs": [
        {
          "internalType": "uint256",
          "name": "",
          "type": "uint256"
        }
      ],
      "stateMutability": "view",
      "type": "function"
    },
    {
      "inputs": [],
      "name": "MAX_TOTAL_SUPPLY",
      "outputs": [
        {
          "internalType": "uint256",
          "name": "",
          "type": "uint256"
        }
      ],
      "stateMutability": "view",
      "type": "function"
    },
    {
      "inputs": [],
      "name": "PRE_SALE_PRICE",
      "outputs": [
        {
          "internalType": "uint256",
          "name": "",
          "type": "uint256"
        }
      ],
      "stateMutability": "view",
      "type": "function"
    },
    {
      "inputs": [],
      "name": "PUBLIC_SALE_PRICE",
      "outputs": [
        {
          "internalType": "uint256",
          "name": "",
          "type": "uint256"
        }
      ],
      "stateMutability": "view",
      "type": "function"
    },
    {
      "inputs": [],
      "name": "ROYALTY_PERCENTAGE",
      "outputs": [
        {
          "internalType": "uint256",
          "name": "",
          "type": "uint256"
        }
      ],
      "stateMutability": "view",
      "type": "function"
    },
    {
      "inputs": [
        {
          "internalType": "address",
          "name": "to",
          "type": "address"
        },
        {
          "internalType": "uint256",
          "name": "tokenId",
          "type": "uint256"
        }
      ],
      "name": "approve",
      "outputs": [],
      "stateMutability": "nonpayable",
      "type": "function"
    },
    {
      "inputs": [
        {
          "internalType": "address",
          "name": "owner",
          "type": "address"
        }
      ],
      "name": "balanceOf",
      "outputs": [
        {
          "internalType": "uint256",
          "name": "",
          "type": "uint256"
        }
      ],
      "stateMutability": "view",
      "type": "function"
    },
    {
      "inputs": [],
      "name": "contractURI",
      "outputs": [
        {
          "internalType": "string",
          "name": "",
          "type": "string"
        }
      ],
      "stateMutability": "view",
      "type": "function"
    },
    {
      "inputs": [
        {
          "internalType": "uint256",
          "name": "tokenId",
          "type": "uint256"
        }
      ],
      "name": "getApproved",
      "outputs": [
        {
          "internalType": "address",
          "name": "",
          "type": "address"
        }
      ],
      "stateMutability": "view",
      "type": "function"
    },
    {
      "inputs": [],
      "name": "getBaseURI",
      "outputs": [
        {
          "internalType": "string",
          "name": "",
          "type": "string"
        }
      ],
      "stateMutability": "view",
      "type": "function"
    },
    {
      "inputs": [],
      "name": "getLastTokenId",
      "outputs": [
        {
          "internalType": "uint256",
          "name": "",
          "type": "uint256"
        }
      ],
      "stateMutability": "view",
      "type": "function"
    },
    {
      "inputs": [
        {
          "internalType": "address[]",
          "name": "addresses",
          "type": "address[]"
        }
      ],
      "name": "giftTokens",
      "outputs": [],
      "stateMutability": "nonpayable",
      "type": "function"
    },
    {
      "inputs": [
        {
          "internalType": "address",
          "name": "owner",
          "type": "address"
        },
        {
          "internalType": "address",
          "name": "operator",
          "type": "address"
        }
      ],
      "name": "isApprovedForAll",
      "outputs": [
        {
          "internalType": "bool",
          "name": "",
          "type": "bool"
        }
      ],
      "stateMutability": "view",
      "type": "function"
    },
    {
      "inputs": [
        {
          "internalType": "uint256",
          "name": "numberOfTokens",
          "type": "uint256"
        },
        {
          "internalType": "bytes32[]",
          "name": "merkleProof",
          "type": "bytes32[]"
        }
      ],
      "name": "mintPreSale",
      "outputs": [],
      "stateMutability": "payable",
      "type": "function"
    },
    {
      "inputs": [
        {
          "internalType": "uint256",
          "name": "numberOfTokens",
          "type": "uint256"
        }
      ],
      "name": "mintPublicSale",
      "outputs": [],
      "stateMutability": "payable",
      "type": "function"
    },
    {
      "inputs": [],
      "name": "name",
      "outputs": [
        {
          "internalType": "string",
          "name": "",
          "type": "string"
        }
      ],
      "stateMutability": "view",
      "type": "function"
    },
    {
      "inputs": [],
      "name": "numReservedTokens",
      "outputs": [
        {
          "internalType": "uint256",
          "name": "",
          "type": "uint256"
        }
      ],
      "stateMutability": "view",
      "type": "function"
    },
    {
      "inputs": [],
      "name": "owner",
      "outputs": [
        {
          "internalType": "address",
          "name": "",
          "type": "address"
        }
      ],
      "stateMutability": "view",
      "type": "function"
    },
    {
      "inputs": [
        {
          "internalType": "uint256",
          "name": "tokenId",
          "type": "uint256"
        }
      ],
      "name": "ownerOf",
      "outputs": [
        {
          "internalType": "address",
          "name": "",
          "type": "address"
        }
      ],
      "stateMutability": "view",
      "type": "function"
    },
    {
      "inputs": [
        {
          "internalType": "address",
          "name": "",
          "type": "address"
        }
      ],
      "name": "preSaleMintCounts",
      "outputs": [
        {
          "internalType": "uint256",
          "name": "",
          "type": "uint256"
        }
      ],
      "stateMutability": "view",
      "type": "function"
    },
    {
      "inputs": [],
      "name": "provenanceHash",
      "outputs": [
        {
          "internalType": "string",
          "name": "",
          "type": "string"
        }
      ],
      "stateMutability": "view",
      "type": "function"
    },
    {
      "inputs": [],
      "name": "renounceOwnership",
      "outputs": [],
      "stateMutability": "nonpayable",
      "type": "function"
    },
    {
      "inputs": [
        {
          "internalType": "uint256",
          "name": "numberOfTokens",
          "type": "uint256"
        }
      ],
      "name": "reserveTokens",
      "outputs": [],
      "stateMutability": "nonpayable",
      "type": "function"
    },
    {
      "inputs": [
        {
          "internalType": "uint256",
          "name": "tokenId",
          "type": "uint256"
        },
        {
          "internalType": "uint256",
          "name": "salePrice",
          "type": "uint256"
        }
      ],
      "name": "royaltyInfo",
      "outputs": [
        {
          "internalType": "address",
          "name": "receiver",
          "type": "address"
        },
        {
          "internalType": "uint256",
          "name": "royaltyAmount",
          "type": "uint256"
        }
      ],
      "stateMutability": "view",
      "type": "function"
    },
    {
      "inputs": [],
      "name": "royaltyReceiverAddress",
      "outputs": [
        {
          "internalType": "address",
          "name": "",
          "type": "address"
        }
      ],
      "stateMutability": "view",
      "type": "function"
    },
    {
      "inputs": [
        {
          "internalType": "address",
          "name": "from",
          "type": "address"
        },
        {
          "internalType": "address",
          "name": "to",
          "type": "address"
        },
        {
          "internalType": "uint256",
          "name": "tokenId",
          "type": "uint256"
        }
      ],
      "name": "safeTransferFrom",
      "outputs": [],
      "stateMutability": "nonpayable",
      "type": "function"
    },
    {
      "inputs": [
        {
          "internalType": "address",
          "name": "from",
          "type": "address"
        },
        {
          "internalType": "address",
          "name": "to",
          "type": "address"
        },
        {
          "internalType": "uint256",
          "name": "tokenId",
          "type": "uint256"
        },
        {
          "internalType": "bytes",
          "name": "_data",
          "type": "bytes"
        }
      ],
      "name": "safeTransferFrom",
      "outputs": [],
      "stateMutability": "nonpayable",
      "type": "function"
    },
    {
      "inputs": [],
      "name": "saleState",
      "outputs": [
        {
          "internalType": "enum MyNFT.SaleState",
          "name": "",
          "type": "uint8"
        }
      ],
      "stateMutability": "view",
      "type": "function"
    },
    {
      "inputs": [
        {
          "internalType": "address",
          "name": "operator",
          "type": "address"
        },
        {
          "internalType": "bool",
          "name": "approved",
          "type": "bool"
        }
      ],
      "name": "setApprovalForAll",
      "outputs": [],
      "stateMutability": "nonpayable",
      "type": "function"
    },
    {
      "inputs": [
        {
          "internalType": "string",
          "name": "newbaseURI",
          "type": "string"
        }
      ],
      "name": "setBaseURI",
      "outputs": [],
      "stateMutability": "nonpayable",
      "type": "function"
    },
    {
      "inputs": [
        {
          "internalType": "string",
          "name": "_collectionURI",
          "type": "string"
        }
      ],
      "name": "setCollectionURI",
      "outputs": [],
      "stateMutability": "nonpayable",
      "type": "function"
    },
    {
      "inputs": [],
      "name": "setPreSaleActive",
      "outputs": [],
      "stateMutability": "nonpayable",
      "type": "function"
    },
    {
      "inputs": [
        {
          "internalType": "bytes32",
          "name": "merkleRoot",
          "type": "bytes32"
        }
      ],
      "name": "setPreSaleListMerkleRoot",
      "outputs": [],
      "stateMutability": "nonpayable",
      "type": "function"
    },
    {
      "inputs": [
        {
          "internalType": "string",
          "name": "_hash",
          "type": "string"
        }
      ],
      "name": "setProvenanceHash",
      "outputs": [],
      "stateMutability": "nonpayable",
      "type": "function"
    },
    {
      "inputs": [],
      "name": "setPublicSaleActive",
      "outputs": [],
      "stateMutability": "nonpayable",
      "type": "function"
    },
    {
      "inputs": [
        {
          "internalType": "address",
          "name": "_royaltyReceiverAddress",
          "type": "address"
        }
      ],
      "name": "setRoyaltyReceiverAddress",
      "outputs": [],
      "stateMutability": "nonpayable",
      "type": "function"
    },
    {
      "inputs": [],
      "name": "setSaleInactive",
      "outputs": [],
      "stateMutability": "nonpayable",
      "type": "function"
    },
    {
      "inputs": [
        {
          "internalType": "bytes4",
          "name": "interfaceId",
          "type": "bytes4"
        }
      ],
      "name": "supportsInterface",
      "outputs": [
        {
          "internalType": "bool",
          "name": "",
          "type": "bool"
        }
      ],
      "stateMutability": "view",
      "type": "function"
    },
    {
      "inputs": [],
      "name": "symbol",
      "outputs": [
        {
          "internalType": "string",
          "name": "",
          "type": "string"
        }
      ],
      "stateMutability": "view",
      "type": "function"
    },
    {
      "inputs": [
        {
          "internalType": "uint256",
          "name": "tokenId",
          "type": "uint256"
        }
      ],
      "name": "tokenURI",
      "outputs": [
        {
          "internalType": "string",
          "name": "",
          "type": "string"
        }
      ],
      "stateMutability": "view",
      "type": "function"
    },
    {
      "inputs": [
        {
          "internalType": "address",
          "name": "from",
          "type": "address"
        },
        {
          "internalType": "address",
          "name": "to",
          "type": "address"
        },
        {
          "internalType": "uint256",
          "name": "tokenId",
          "type": "uint256"
        }
      ],
      "name": "transferFrom",
      "outputs": [],
      "stateMutability": "nonpayable",
      "type": "function"
    },
    {
      "inputs": [
        {
          "internalType": "address",
          "name": "newOwner",
          "type": "address"
        }
      ],
      "name": "transferOwnership",
      "outputs": [],
      "stateMutability": "nonpayable",
      "type": "function"
    },
    {
      "inputs": [
        {
          "internalType": "address payable",
          "name": "_dest",
          "type": "address"
        }
      ],
      "name": "withdraw",
      "outputs": [],
      "stateMutability": "nonpayable",
      "type": "function"
    },
    {
      "inputs": [
        {
          "internalType": "address",
          "name": "_tokenAddress",
          "type": "address"
        },
        {
          "internalType": "address",
          "name": "_dest",
          "type": "address"
        }
      ],
      "name": "withdrawToken",
      "outputs": [],
      "stateMutability": "nonpayable",
      "type": "function"
    },
    {
      "stateMutability": "payable",
      "type": "receive"
    }
  ],
  "bytecode": "0x60806040526000600f60006101000a81548160ff0219169083600281111562000051577f4e487b7100000000000000000000000000000000000000000000000000000000600052602160045260246000fd5b02179055503480156200006357600080fd5b50604051620063c4380380620063c483398181016040528101906200008991906200032e565b6040518060400160405280601181526020017f4d79204e465420436f6c6c656374696f6e0000000000000000000000000000008152506040518060400160405280600581526020017f4d594e465400000000000000000000000000000000000000000000000000000081525081600090805190602001906200010d92919062000267565b5080600190805190602001906200012692919062000267565b505050620001496200013d6200019960201b60201c565b620001a160201b60201c565b600160078190555080600f60016101000a81548173ffffffffffffffffffffffffffffffffffffffff021916908373ffffffffffffffffffffffffffffffffffffffff160217905550506200040d565b600033905090565b6000600660009054906101000a900473ffffffffffffffffffffffffffffffffffffffff16905081600660006101000a81548173ffffffffffffffffffffffffffffffffffffffff021916908373ffffffffffffffffffffffffffffffffffffffff1602179055508173ffffffffffffffffffffffffffffffffffffffff168173ffffffffffffffffffffffffffffffffffffffff167f8be0079c531659141344cd1fd0a4f28419497f9722a3daafe3b4186f6b6457e060405160405180910390a35050565b82805462000275906200038e565b90600052602060002090601f016020900481019282620002995760008555620002e5565b82601f10620002b457805160ff1916838001178555620002e5565b82800160010185558215620002e5579182015b82811115620002e4578251825591602001919060010190620002c7565b5b509050620002f49190620002f8565b5090565b5b8082111562000313576000816000905550600101620002f9565b5090565b6000815190506200032881620003f3565b92915050565b6000602082840312156200034157600080fd5b6000620003518482850162000317565b91505092915050565b600062000367826200036e565b9050919050565b600073ffffffffffffffffffffffffffffffffffffffff82169050919050565b60006002820490506001821680620003a757607f821691505b60208210811415620003be57620003bd620003c4565b5b50919050565b7f4e487b7100000000000000000000000000000000000000000000000000000000600052602260045260246000fd5b620003fe816200035a565b81146200040a57600080fd5b50565b615fa7806200041d6000396000f3fe60806040526004361061028c5760003560e01c8063603f4d521161015a5780639e6b2c5b116100c1578063d031370b1161007a578063d031370b14610972578063d1bdb1d11461099b578063dc7eda7d146109c6578063e8a3d485146109f1578063e985e9c514610a1c578063f2fde38b14610a5957610293565b80639e6b2c5b14610873578063a22cb4651461088f578063af42d82d146108b8578063b88d4fde146108e1578063c6ab67a31461090a578063c87b56dd1461093557610293565b806383c4c00d1161011357806383c4c00d146107615780638a8fe8191461078c5780638b4f8463146107c95780638da5cb5b146107f257806395d89b411461081d5780639dd85f171461084857610293565b8063603f4d521461064f5780636352211e1461067a57806363ff5e17146106b757806370a08231146106e2578063714c53981461071f578063715018a61461074a57610293565b80632639f460116101fe578063440754d8116101b7578063440754d814610562578063463b08db1461058b578063508881c1146105b657806351cff8d9146105e157806355f804b31461060a5780635a5e5d581461063357610293565b80632639f460146104675780632a55205a1461049057806333039d3d146104ce5780633aeac4e1146104f95780633e11ab3f1461052257806342842e0e1461053957610293565b80630cd6fba9116102505780630cd6fba91461039157806310969523146103a857806311e3dbca146103d1578063193402bb146103fc57806320fe418a1461042757806323b872dd1461043e57610293565b806301ffc9a71461029857806306fdde03146102d557806307e89ec014610300578063081812fc1461032b578063095ea7b31461036857610293565b3661029357005b600080fd5b3480156102a457600080fd5b506102bf60048036038101906102ba9190614418565b610a82565b6040516102cc9190614de7565b60405180910390f35b3480156102e157600080fd5b506102ea610afc565b6040516102f79190614e1d565b60405180910390f35b34801561030c57600080fd5b50610315610b8e565b604051610322919061521f565b60405180910390f35b34801561033757600080fd5b50610352600480360381019061034d91906144f0565b610b99565b60405161035f9190614d57565b60405180910390f35b34801561037457600080fd5b5061038f600480360381019061038a9190614345565b610c1e565b005b34801561039d57600080fd5b506103a6610d36565b005b3480156103b457600080fd5b506103cf60048036038101906103ca919061446a565b610e6b565b005b3480156103dd57600080fd5b506103e6610efd565b6040516103f3919061521f565b60405180910390f35b34801561040857600080fd5b50610411610f03565b60405161041e919061521f565b60405180910390f35b34801561043357600080fd5b5061043c610f0e565b005b34801561044a57600080fd5b506104656004803603810190610460919061423f565b611043565b005b34801561047357600080fd5b5061048e600480360381019061048991906144af565b6110a3565b005b34801561049c57600080fd5b506104b760048036038101906104b2919061459a565b61117b565b6040516104c5929190614dbe565b60405180910390f35b3480156104da57600080fd5b506104e361120f565b6040516104f0919061521f565b60405180910390f35b34801561050557600080fd5b50610520600480360381019061051b9190614203565b611215565b005b34801561052e57600080fd5b50610537611388565b005b34801561054557600080fd5b50610560600480360381019061055b919061423f565b6114bc565b005b34801561056e57600080fd5b5061058960048036038101906105849190614381565b6114dc565b005b34801561059757600080fd5b506105a061178b565b6040516105ad919061521f565b60405180910390f35b3480156105c257600080fd5b506105cb611790565b6040516105d8919061521f565b60405180910390f35b3480156105ed57600080fd5b50610608600480360381019061060391906141da565b611795565b005b34801561061657600080fd5b50610631600480360381019061062c91906144af565b611886565b005b61064d600480360381019061064891906144f0565b61195e565b005b34801561065b57600080fd5b50610664611bfe565b6040516106719190614e02565b60405180910390f35b34801561068657600080fd5b506106a1600480360381019061069c91906144f0565b611c11565b6040516106ae9190614d57565b60405180910390f35b3480156106c357600080fd5b506106cc611cc3565b6040516106d9919061521f565b60405180910390f35b3480156106ee57600080fd5b50610709600480360381019061070491906141b1565b611cc8565b604051610716919061521f565b60405180910390f35b34801561072b57600080fd5b50610734611d80565b6040516107419190614e1d565b60405180910390f35b34801561075657600080fd5b5061075f611e12565b005b34801561076d57600080fd5b50610776611e9a565b604051610783919061521f565b60405180910390f35b34801561079857600080fd5b506107b360048036038101906107ae91906141b1565b611eab565b6040516107c0919061521f565b60405180910390f35b3480156107d557600080fd5b506107f060048036038101906107eb91906141b1565b611ec3565b005b3480156107fe57600080fd5b50610807611fc6565b6040516108149190614d57565b60405180910390f35b34801561082957600080fd5b50610832611ff0565b60405161083f9190614e1d565b60405180910390f35b34801561085457600080fd5b5061085d612082565b60405161086a919061521f565b60405180910390f35b61088d60048036038101906108889190614542565b612087565b005b34801561089b57600080fd5b506108b660048036038101906108b19190614309565b6124b9565b005b3480156108c457600080fd5b506108df60048036038101906108da91906143ef565b6124cf565b005b3480156108ed57600080fd5b506109086004803603810190610903919061428e565b612582565b005b34801561091657600080fd5b5061091f6125e4565b60405161092c9190614e1d565b60405180910390f35b34801561094157600080fd5b5061095c600480360381019061095791906144f0565b612672565b6040516109699190614e1d565b60405180910390f35b34801561097e57600080fd5b50610999600480360381019061099491906144f0565b6126f0565b005b3480156109a757600080fd5b506109b06128e7565b6040516109bd919061521f565b60405180910390f35b3480156109d257600080fd5b506109db6128ec565b6040516109e89190614d57565b60405180910390f35b3480156109fd57600080fd5b50610a06612912565b604051610a139190614e1d565b60405180910390f35b348015610a2857600080fd5b50610a436004803603810190610a3e9190614203565b6129a4565b604051610a509190614de7565b60405180910390f35b348015610a6557600080fd5b50610a806004803603810190610a7b91906141b1565b612a38565b005b60007f2a55205a000000000000000000000000000000000000000000000000000000007bffffffffffffffffffffffffffffffffffffffffffffffffffffffff1916827bffffffffffffffffffffffffffffffffffffffffffffffffffffffff19161480610af55750610af482612b30565b5b9050919050565b606060008054610b0b90615569565b80601f0160208091040260200160405190810160405280929190818152602001828054610b3790615569565b8015610b845780601f10610b5957610100808354040283529160200191610b84565b820191906000526020600020905b815481529060010190602001808311610b6757829003601f168201915b5050505050905090565b66470de4df82000081565b6000610ba482612c12565b610be3576040517f08c379a0000000000000000000000000000000000000000000000000000000008152600401610bda9061509f565b60405180910390fd5b6004600083815260200190815260200160002060009054906101000a900473ffffffffffffffffffffffffffffffffffffffff169050919050565b6000610c2982611c11565b90508073ffffffffffffffffffffffffffffffffffffffff168373ffffffffffffffffffffffffffffffffffffffff161415610c9a576040517f08c379a0000000000000000000000000000000000000000000000000000000008152600401610c91906150ff565b60405180910390fd5b8073ffffffffffffffffffffffffffffffffffffffff16610cb9612c7e565b73ffffffffffffffffffffffffffffffffffffffff161480610ce85750610ce781610ce2612c7e565b6129a4565b5b610d27576040517f08c379a0000000000000000000000000000000000000000000000000000000008152600401610d1e90614fff565b60405180910390fd5b610d318383612c86565b505050565b610d3e612c7e565b73ffffffffffffffffffffffffffffffffffffffff16610d5c611fc6565b73ffffffffffffffffffffffffffffffffffffffff1614610db2576040517f08c379a0000000000000000000000000000000000000000000000000000000008152600401610da9906150df565b60405180910390fd5b6000600f60006101000a81548160ff02191690836002811115610dfe577f4e487b7100000000000000000000000000000000000000000000000000000000600052602160045260246000fd5b021790555060006002811115610e3d577f4e487b7100000000000000000000000000000000000000000000000000000000600052602160045260246000fd5b7f784851bf4f56ebb482b14174b5fcc43c006ca236a47dcb14d8eedcf0eddc503e60405160405180910390a2565b610e73612c7e565b73ffffffffffffffffffffffffffffffffffffffff16610e91611fc6565b73ffffffffffffffffffffffffffffffffffffffff1614610ee7576040517f08c379a0000000000000000000000000000000000000000000000000000000008152600401610ede906150df565b60405180910390fd5b8181600b9190610ef8929190613e1d565b505050565b600c5481565b662386f26fc1000081565b610f16612c7e565b73ffffffffffffffffffffffffffffffffffffffff16610f34611fc6565b73ffffffffffffffffffffffffffffffffffffffff1614610f8a576040517f08c379a0000000000000000000000000000000000000000000000000000000008152600401610f81906150df565b60405180910390fd5b6001600f60006101000a81548160ff02191690836002811115610fd6577f4e487b7100000000000000000000000000000000000000000000000000000000600052602160045260246000fd5b021790555060016002811115611015577f4e487b7100000000000000000000000000000000000000000000000000000000600052602160045260246000fd5b7f784851bf4f56ebb482b14174b5fcc43c006ca236a47dcb14d8eedcf0eddc503e60405160405180910390a2565b61105461104e612c7e565b82612d3f565b611093576040517f08c379a000000000000000000000000000000000000000000000000000000000815260040161108a9061511f565b60405180910390fd5b61109e838383612e1d565b505050565b6110ab612c7e565b73ffffffffffffffffffffffffffffffffffffffff166110c9611fc6565b73ffffffffffffffffffffffffffffffffffffffff161461111f576040517f08c379a0000000000000000000000000000000000000000000000000000000008152600401611116906150df565b60405180910390fd5b80600a9080519060200190611135929190613ea3565b50806040516111449190614cf1565b60405180910390207ff88079580916acca3afc2e0f6ce909bab62d70f38e856286ffd15925be4fd9cc60405160405180910390a250565b6000808361118881612c12565b6111c7576040517f08c379a00000000000000000000000000000000000000000000000000000000081526004016111be9061505f565b60405180910390fd5b600f60019054906101000a900473ffffffffffffffffffffffffffffffffffffffff1660646005866111f991906153e4565b61120391906153b3565b92509250509250929050565b611f4081565b61121d612c7e565b73ffffffffffffffffffffffffffffffffffffffff1661123b611fc6565b73ffffffffffffffffffffffffffffffffffffffff1614611291576040517f08c379a0000000000000000000000000000000000000000000000000000000008152600401611288906150df565b60405180910390fd5b60008273ffffffffffffffffffffffffffffffffffffffff166370a08231306040518263ffffffff1660e01b81526004016112cc9190614d57565b60206040518083038186803b1580156112e457600080fd5b505afa1580156112f8573d6000803e3d6000fd5b505050506040513d601f19601f8201168201806040525081019061131c9190614519565b9050611329838383613084565b8173ffffffffffffffffffffffffffffffffffffffff168373ffffffffffffffffffffffffffffffffffffffff167fce9ecd720079c00c86716fadb783ea8b0577f02c0f55b98d8a4a86ecdcb7918b60405160405180910390a3505050565b611390612c7e565b73ffffffffffffffffffffffffffffffffffffffff166113ae611fc6565b73ffffffffffffffffffffffffffffffffffffffff1614611404576040517f08c379a00000000000000000000000000000000000000000000000000000000081526004016113fb906150df565b60405180910390fd5b6002600f60006101000a81548160ff02191690836002811115611450577f4e487b7100000000000000000000000000000000000000000000000000000000600052602160045260246000fd5b021790555060028081111561148e577f4e487b7100000000000000000000000000000000000000000000000000000000600052602160045260246000fd5b7f784851bf4f56ebb482b14174b5fcc43c006ca236a47dcb14d8eedcf0eddc503e60405160405180910390a2565b6114d783838360405180602001604052806000815250612582565b505050565b60026007541415611522576040517f08c379a0000000000000000000000000000000000000000000000000000000008152600401611519906151bf565b60405180910390fd5b6002600781905550611532612c7e565b73ffffffffffffffffffffffffffffffffffffffff16611550611fc6565b73ffffffffffffffffffffffffffffffffffffffff16146115a6576040517f08c379a000000000000000000000000000000000000000000000000000000000815260040161159d906150df565b60405180910390fd5b8181905060c881600c546115ba919061535d565b11156115fb576040517f08c379a00000000000000000000000000000000000000000000000000000000081526004016115f29061519f565b60405180910390fd5b611f4081611609600861310a565b611613919061535d565b1115611654576040517f08c379a000000000000000000000000000000000000000000000000000000000815260040161164b90614fdf565b60405180910390fd5b82826000828290501161169c576040517f08c379a0000000000000000000000000000000000000000000000000000000008152600401611693906151ff565b60405180910390fd5b84849050600c60008282546116b1919061535d565b9250508190555060005b8585905081101561173757611724868683818110611702577f4e487b7100000000000000000000000000000000000000000000000000000000600052603260045260246000fd5b905060200201602081019061171791906141b1565b61171f613118565b613133565b808061172f906155cc565b9150506116bb565b508484604051611748929190614cc1565b60405180910390207f60f9e182d4e9c17b0b89f72aca3c084950624d5c97740ab7c37368ed9c1b561960405160405180910390a250505060016007819055505050565b600581565b600581565b61179d612c7e565b73ffffffffffffffffffffffffffffffffffffffff166117bb611fc6565b73ffffffffffffffffffffffffffffffffffffffff1614611811576040517f08c379a0000000000000000000000000000000000000000000000000000000008152600401611808906150df565b60405180910390fd5b600047905061183f818373ffffffffffffffffffffffffffffffffffffffff1661315190919063ffffffff16565b8173ffffffffffffffffffffffffffffffffffffffff167ff67611512e0a2d90c96fd3f08dca4971bc45fba9dc679eabe839a32abbe58a8e60405160405180910390a25050565b61188e612c7e565b73ffffffffffffffffffffffffffffffffffffffff166118ac611fc6565b73ffffffffffffffffffffffffffffffffffffffff1614611902576040517f08c379a00000000000000000000000000000000000000000000000000000000081526004016118f9906150df565b60405180910390fd5b8060099080519060200190611918929190613ea3565b50806040516119279190614cf1565b60405180910390207f23c8c9488efebfd474e85a7956de6f39b17c7ab88502d42a623db2d8e382bbaa60405160405180910390a250565b600260075414156119a4576040517f08c379a000000000000000000000000000000000000000000000000000000000815260040161199b906151bf565b60405180910390fd5b60026007819055506002808111156119e5577f4e487b7100000000000000000000000000000000000000000000000000000000600052602160045260246000fd5b600f60009054906101000a900460ff166002811115611a2d577f4e487b7100000000000000000000000000000000000000000000000000000000600052602160045260246000fd5b14611a6d576040517f08c379a0000000000000000000000000000000000000000000000000000000008152600401611a64906151df565b60405180910390fd5b66470de4df82000081348183611a8391906153e4565b14611ac3576040517f08c379a0000000000000000000000000000000000000000000000000000000008152600401611aba9061517f565b60405180910390fd5b82600c5460c8611f40611ad6919061543e565b611ae0919061535d565b81611aeb600861310a565b611af5919061535d565b1115611b36576040517f08c379a0000000000000000000000000000000000000000000000000000000008152600401611b2d90614fdf565b60405180910390fd5b836005811115611b7b576040517f08c379a0000000000000000000000000000000000000000000000000000000008152600401611b7290614f5f565b60405180910390fd5b60005b85811015611baa57611b9733611b92613118565b613133565b8080611ba2906155cc565b915050611b7e565b50843373ffffffffffffffffffffffffffffffffffffffff167fe0e3b14a4f3f053af472cf2a7c31ae0e87fd170dbc7a89466d1c776952bd173760405160405180910390a350505050600160078190555050565b600f60009054906101000a900460ff1681565b6000806002600084815260200190815260200160002060009054906101000a900473ffffffffffffffffffffffffffffffffffffffff169050600073ffffffffffffffffffffffffffffffffffffffff168173ffffffffffffffffffffffffffffffffffffffff161415611cba576040517f08c379a0000000000000000000000000000000000000000000000000000000008152600401611cb19061503f565b60405180910390fd5b80915050919050565b60c881565b60008073ffffffffffffffffffffffffffffffffffffffff168273ffffffffffffffffffffffffffffffffffffffff161415611d39576040517f08c379a0000000000000000000000000000000000000000000000000000000008152600401611d309061501f565b60405180910390fd5b600360008373ffffffffffffffffffffffffffffffffffffffff1673ffffffffffffffffffffffffffffffffffffffff168152602001908152602001600020549050919050565b606060098054611d8f90615569565b80601f0160208091040260200160405190810160405280929190818152602001828054611dbb90615569565b8015611e085780601f10611ddd57610100808354040283529160200191611e08565b820191906000526020600020905b815481529060010190602001808311611deb57829003601f168201915b5050505050905090565b611e1a612c7e565b73ffffffffffffffffffffffffffffffffffffffff16611e38611fc6565b73ffffffffffffffffffffffffffffffffffffffff1614611e8e576040517f08c379a0000000000000000000000000000000000000000000000000000000008152600401611e85906150df565b60405180910390fd5b611e986000613245565b565b6000611ea6600861310a565b905090565b600d6020528060005260406000206000915090505481565b611ecb612c7e565b73ffffffffffffffffffffffffffffffffffffffff16611ee9611fc6565b73ffffffffffffffffffffffffffffffffffffffff1614611f3f576040517f08c379a0000000000000000000000000000000000000000000000000000000008152600401611f36906150df565b60405180910390fd5b80600f60016101000a81548173ffffffffffffffffffffffffffffffffffffffff021916908373ffffffffffffffffffffffffffffffffffffffff1602179055508073ffffffffffffffffffffffffffffffffffffffff167f1b7503b18e6e011fd6a493067321794279eb00b8bad2baefa1d771b2e98f216c60405160405180910390a250565b6000600660009054906101000a900473ffffffffffffffffffffffffffffffffffffffff16905090565b606060018054611fff90615569565b80601f016020809104026020016040519081016040528092919081815260200182805461202b90615569565b80156120785780601f1061204d57610100808354040283529160200191612078565b820191906000526020600020905b81548152906001019060200180831161205b57829003601f168201915b5050505050905090565b600381565b600260075414156120cd576040517f08c379a00000000000000000000000000000000000000000000000000000000081526004016120c4906151bf565b60405180910390fd5b60026007819055506001600281111561210f577f4e487b7100000000000000000000000000000000000000000000000000000000600052602160045260246000fd5b600f60009054906101000a900460ff166002811115612157577f4e487b7100000000000000000000000000000000000000000000000000000000600052602160045260246000fd5b14612197576040517f08c379a000000000000000000000000000000000000000000000000000000000815260040161218e906150bf565b60405180910390fd5b662386f26fc10000833481836121ad91906153e4565b146121ed576040517f08c379a00000000000000000000000000000000000000000000000000000000081526004016121e49061517f565b60405180910390fd5b84600c5460c8611f40612200919061543e565b61220a919061535d565b81612215600861310a565b61221f919061535d565b1115612260576040517f08c379a000000000000000000000000000000000000000000000000000000000815260040161225790614fdf565b60405180910390fd5b84846122d6828280806020026020016040519081016040528093929190818152602001838360200280828437600081840152601f19601f82011690508083019250505050505050600e54336040516020016122bb9190614ca6565b6040516020818303038152906040528051906020012061330b565b612315576040517f08c379a000000000000000000000000000000000000000000000000000000000815260040161230c90614edf565b60405180910390fd5b87600381600d60003373ffffffffffffffffffffffffffffffffffffffff1673ffffffffffffffffffffffffffffffffffffffff16815260200190815260200160002054612363919061535d565b11156123a4576040517f08c379a000000000000000000000000000000000000000000000000000000000815260040161239b90614e3f565b60405180910390fd5b88600d60003373ffffffffffffffffffffffffffffffffffffffff1673ffffffffffffffffffffffffffffffffffffffff168152602001908152602001600020546123ef919061535d565b600d60003373ffffffffffffffffffffffffffffffffffffffff1673ffffffffffffffffffffffffffffffffffffffff1681526020019081526020016000208190555060005b898110156124615761244e33612449613118565b613133565b8080612459906155cc565b915050612435565b50883373ffffffffffffffffffffffffffffffffffffffff167f7ecbc6c2508739b8cb9f4ce243de4345253602f1ea2f8ba5e0ac26f1eecc63aa60405160405180910390a35050505050506001600781905550505050565b6124cb6124c4612c7e565b8383613322565b5050565b6124d7612c7e565b73ffffffffffffffffffffffffffffffffffffffff166124f5611fc6565b73ffffffffffffffffffffffffffffffffffffffff161461254b576040517f08c379a0000000000000000000000000000000000000000000000000000000008152600401612542906150df565b60405180910390fd5b80600e81905550807f2965d6e68e4e35cf06fce0f92ff1ee28e7d29bde2bf6b0557d8f22e78171432d60405160405180910390a250565b61259361258d612c7e565b83612d3f565b6125d2576040517f08c379a00000000000000000000000000000000000000000000000000000000081526004016125c99061511f565b60405180910390fd5b6125de8484848461348f565b50505050565b600b80546125f190615569565b80601f016020809104026020016040519081016040528092919081815260200182805461261d90615569565b801561266a5780601f1061263f5761010080835404028352916020019161266a565b820191906000526020600020905b81548152906001019060200180831161264d57829003601f168201915b505050505081565b60608161267e81612c12565b6126bd576040517f08c379a00000000000000000000000000000000000000000000000000000000081526004016126b49061505f565b60405180910390fd5b60096126c8846134eb565b6040516020016126d9929190614d08565b604051602081830303815290604052915050919050565b60026007541415612736576040517f08c379a000000000000000000000000000000000000000000000000000000000815260040161272d906151bf565b60405180910390fd5b6002600781905550612746612c7e565b73ffffffffffffffffffffffffffffffffffffffff16612764611fc6565b73ffffffffffffffffffffffffffffffffffffffff16146127ba576040517f08c379a00000000000000000000000000000000000000000000000000000000081526004016127b1906150df565b60405180910390fd5b8060c881600c546127cb919061535d565b111561280c576040517f08c379a00000000000000000000000000000000000000000000000000000000081526004016128039061519f565b60405180910390fd5b611f408161281a600861310a565b612824919061535d565b1115612865576040517f08c379a000000000000000000000000000000000000000000000000000000000815260040161285c90614fdf565b60405180910390fd5b81600c6000828254612877919061535d565b9250508190555060005b828110156128ad5761289a33612895613118565b613133565b80806128a5906155cc565b915050612881565b50817fa3fef113f707ae04eb95a86404ce54b1b062eee16db52dc37266dbdd1cbaef1160405160405180910390a250600160078190555050565b600581565b600f60019054906101000a900473ffffffffffffffffffffffffffffffffffffffff1681565b6060600a805461292190615569565b80601f016020809104026020016040519081016040528092919081815260200182805461294d90615569565b801561299a5780601f1061296f5761010080835404028352916020019161299a565b820191906000526020600020905b81548152906001019060200180831161297d57829003601f168201915b5050505050905090565b6000600560008473ffffffffffffffffffffffffffffffffffffffff1673ffffffffffffffffffffffffffffffffffffffff16815260200190815260200160002060008373ffffffffffffffffffffffffffffffffffffffff1673ffffffffffffffffffffffffffffffffffffffff16815260200190815260200160002060009054906101000a900460ff16905092915050565b612a40612c7e565b73ffffffffffffffffffffffffffffffffffffffff16612a5e611fc6565b73ffffffffffffffffffffffffffffffffffffffff1614612ab4576040517f08c379a0000000000000000000000000000000000000000000000000000000008152600401612aab906150df565b60405180910390fd5b600073ffffffffffffffffffffffffffffffffffffffff168173ffffffffffffffffffffffffffffffffffffffff161415612b24576040517f08c379a0000000000000000000000000000000000000000000000000000000008152600401612b1b90614e7f565b60405180910390fd5b612b2d81613245565b50565b60007f80ac58cd000000000000000000000000000000000000000000000000000000007bffffffffffffffffffffffffffffffffffffffffffffffffffffffff1916827bffffffffffffffffffffffffffffffffffffffffffffffffffffffff19161480612bfb57507f5b5e139f000000000000000000000000000000000000000000000000000000007bffffffffffffffffffffffffffffffffffffffffffffffffffffffff1916827bffffffffffffffffffffffffffffffffffffffffffffffffffffffff1916145b80612c0b5750612c0a82613698565b5b9050919050565b60008073ffffffffffffffffffffffffffffffffffffffff166002600084815260200190815260200160002060009054906101000a900473ffffffffffffffffffffffffffffffffffffffff1673ffffffffffffffffffffffffffffffffffffffff1614159050919050565b600033905090565b816004600083815260200190815260200160002060006101000a81548173ffffffffffffffffffffffffffffffffffffffff021916908373ffffffffffffffffffffffffffffffffffffffff160217905550808273ffffffffffffffffffffffffffffffffffffffff16612cf983611c11565b73ffffffffffffffffffffffffffffffffffffffff167f8c5be1e5ebec7d5bd14f71427d1e84f3dd0314c0f7b2291e5b200ac8c7c3b92560405160405180910390a45050565b6000612d4a82612c12565b612d89576040517f08c379a0000000000000000000000000000000000000000000000000000000008152600401612d8090614fbf565b60405180910390fd5b6000612d9483611c11565b90508073ffffffffffffffffffffffffffffffffffffffff168473ffffffffffffffffffffffffffffffffffffffff161480612dd65750612dd581856129a4565b5b80612e1457508373ffffffffffffffffffffffffffffffffffffffff16612dfc84610b99565b73ffffffffffffffffffffffffffffffffffffffff16145b91505092915050565b8273ffffffffffffffffffffffffffffffffffffffff16612e3d82611c11565b73ffffffffffffffffffffffffffffffffffffffff1614612e93576040517f08c379a0000000000000000000000000000000000000000000000000000000008152600401612e8a90614e9f565b60405180910390fd5b600073ffffffffffffffffffffffffffffffffffffffff168273ffffffffffffffffffffffffffffffffffffffff161415612f03576040517f08c379a0000000000000000000000000000000000000000000000000000000008152600401612efa90614eff565b60405180910390fd5b612f0e838383613702565b612f19600082612c86565b6001600360008573ffffffffffffffffffffffffffffffffffffffff1673ffffffffffffffffffffffffffffffffffffffff1681526020019081526020016000206000828254612f69919061543e565b925050819055506001600360008473ffffffffffffffffffffffffffffffffffffffff1673ffffffffffffffffffffffffffffffffffffffff1681526020019081526020016000206000828254612fc0919061535d565b92505081905550816002600083815260200190815260200160002060006101000a81548173ffffffffffffffffffffffffffffffffffffffff021916908373ffffffffffffffffffffffffffffffffffffffff160217905550808273ffffffffffffffffffffffffffffffffffffffff168473ffffffffffffffffffffffffffffffffffffffff167fddf252ad1be2c89b69c2b068fc378daa952ba7f163c4a11628f55a4df523b3ef60405160405180910390a461307f838383613707565b505050565b6131058363a9059cbb60e01b84846040516024016130a3929190614dbe565b604051602081830303815290604052907bffffffffffffffffffffffffffffffffffffffffffffffffffffffff19166020820180517bffffffffffffffffffffffffffffffffffffffffffffffffffffffff838183161783525050505061370c565b505050565b600081600001549050919050565b600061312460086137d3565b61312e600861310a565b905090565b61314d8282604051806020016040528060008152506137e9565b5050565b80471015613194576040517f08c379a000000000000000000000000000000000000000000000000000000000815260040161318b90614f7f565b60405180910390fd5b60008273ffffffffffffffffffffffffffffffffffffffff16826040516131ba90614d42565b60006040518083038185875af1925050503d80600081146131f7576040519150601f19603f3d011682016040523d82523d6000602084013e6131fc565b606091505b5050905080613240576040517f08c379a000000000000000000000000000000000000000000000000000000000815260040161323790614f3f565b60405180910390fd5b505050565b6000600660009054906101000a900473ffffffffffffffffffffffffffffffffffffffff16905081600660006101000a81548173ffffffffffffffffffffffffffffffffffffffff021916908373ffffffffffffffffffffffffffffffffffffffff1602179055508173ffffffffffffffffffffffffffffffffffffffff168173ffffffffffffffffffffffffffffffffffffffff167f8be0079c531659141344cd1fd0a4f28419497f9722a3daafe3b4186f6b6457e060405160405180910390a35050565b6000826133188584613844565b1490509392505050565b8173ffffffffffffffffffffffffffffffffffffffff168373ffffffffffffffffffffffffffffffffffffffff161415613391576040517f08c379a000000000000000000000000000000000000000000000000000000000815260040161338890614f1f565b60405180910390fd5b80600560008573ffffffffffffffffffffffffffffffffffffffff1673ffffffffffffffffffffffffffffffffffffffff16815260200190815260200160002060008473ffffffffffffffffffffffffffffffffffffffff1673ffffffffffffffffffffffffffffffffffffffff16815260200190815260200160002060006101000a81548160ff0219169083151502179055508173ffffffffffffffffffffffffffffffffffffffff168373ffffffffffffffffffffffffffffffffffffffff167f17307eab39ab6107e8899845ad3d59bd9653f200f220920489ca2b5937696c31836040516134829190614de7565b60405180910390a3505050565b61349a848484612e1d565b6134a6848484846138df565b6134e5576040517f08c379a00000000000000000000000000000000000000000000000000000000081526004016134dc90614e5f565b60405180910390fd5b50505050565b60606000821415613533576040518060400160405280600181526020017f30000000000000000000000000000000000000000000000000000000000000008152509050613693565b600082905060005b6000821461356557808061354e906155cc565b915050600a8261355e91906153b3565b915061353b565b60008167ffffffffffffffff8111156135a7577f4e487b7100000000000000000000000000000000000000000000000000000000600052604160045260246000fd5b6040519080825280601f01601f1916602001820160405280156135d95781602001600182028036833780820191505090505b5090505b6000851461368c576001826135f2919061543e565b9150600a856136019190615639565b603061360d919061535d565b60f81b818381518110613649577f4e487b7100000000000000000000000000000000000000000000000000000000600052603260045260246000fd5b60200101907effffffffffffffffffffffffffffffffffffffffffffffffffffffffffffff1916908160001a905350600a8561368591906153b3565b94506135dd565b8093505050505b919050565b60007f01ffc9a7000000000000000000000000000000000000000000000000000000007bffffffffffffffffffffffffffffffffffffffffffffffffffffffff1916827bffffffffffffffffffffffffffffffffffffffffffffffffffffffff1916149050919050565b505050565b505050565b600061376e826040518060400160405280602081526020017f5361666545524332303a206c6f772d6c6576656c2063616c6c206661696c65648152508573ffffffffffffffffffffffffffffffffffffffff16613a769092919063ffffffff16565b90506000815111156137ce578080602001905181019061378e91906143c6565b6137cd576040517f08c379a00000000000000000000000000000000000000000000000000000000081526004016137c49061515f565b60405180910390fd5b5b505050565b6001816000016000828254019250508190555050565b6137f38383613a8e565b61380060008484846138df565b61383f576040517f08c379a000000000000000000000000000000000000000000000000000000000815260040161383690614e5f565b60405180910390fd5b505050565b60008082905060005b84518110156138d4576000858281518110613891577f4e487b7100000000000000000000000000000000000000000000000000000000600052603260045260246000fd5b602002602001015190508083116138b3576138ac8382613c68565b92506138c0565b6138bd8184613c68565b92505b5080806138cc906155cc565b91505061384d565b508091505092915050565b60006139008473ffffffffffffffffffffffffffffffffffffffff16613c7f565b15613a69578373ffffffffffffffffffffffffffffffffffffffff1663150b7a02613929612c7e565b8786866040518563ffffffff1660e01b815260040161394b9493929190614d72565b602060405180830381600087803b15801561396557600080fd5b505af192505050801561399657506040513d601f19601f820116820180604052508101906139939190614441565b60015b613a19573d80600081146139c6576040519150601f19603f3d011682016040523d82523d6000602084013e6139cb565b606091505b50600081511415613a11576040517f08c379a0000000000000000000000000000000000000000000000000000000008152600401613a0890614e5f565b60405180910390fd5b805181602001fd5b63150b7a0260e01b7bffffffffffffffffffffffffffffffffffffffffffffffffffffffff1916817bffffffffffffffffffffffffffffffffffffffffffffffffffffffff191614915050613a6e565b600190505b949350505050565b6060613a858484600085613ca2565b90509392505050565b600073ffffffffffffffffffffffffffffffffffffffff168273ffffffffffffffffffffffffffffffffffffffff161415613afe576040517f08c379a0000000000000000000000000000000000000000000000000000000008152600401613af59061507f565b60405180910390fd5b613b0781612c12565b15613b47576040517f08c379a0000000000000000000000000000000000000000000000000000000008152600401613b3e90614ebf565b60405180910390fd5b613b5360008383613702565b6001600360008473ffffffffffffffffffffffffffffffffffffffff1673ffffffffffffffffffffffffffffffffffffffff1681526020019081526020016000206000828254613ba3919061535d565b92505081905550816002600083815260200190815260200160002060006101000a81548173ffffffffffffffffffffffffffffffffffffffff021916908373ffffffffffffffffffffffffffffffffffffffff160217905550808273ffffffffffffffffffffffffffffffffffffffff16600073ffffffffffffffffffffffffffffffffffffffff167fddf252ad1be2c89b69c2b068fc378daa952ba7f163c4a11628f55a4df523b3ef60405160405180910390a4613c6460008383613707565b5050565b600082600052816020526040600020905092915050565b6000808273ffffffffffffffffffffffffffffffffffffffff163b119050919050565b606082471015613ce7576040517f08c379a0000000000000000000000000000000000000000000000000000000008152600401613cde90614f9f565b60405180910390fd5b613cf085613c7f565b613d2f576040517f08c379a0000000000000000000000000000000000000000000000000000000008152600401613d269061513f565b60405180910390fd5b6000808673ffffffffffffffffffffffffffffffffffffffff168587604051613d589190614cda565b60006040518083038185875af1925050503d8060008114613d95576040519150601f19603f3d011682016040523d82523d6000602084013e613d9a565b606091505b5091509150613daa828286613db6565b92505050949350505050565b60608315613dc657829050613e16565b600083511115613dd95782518084602001fd5b816040517f08c379a0000000000000000000000000000000000000000000000000000000008152600401613e0d9190614e1d565b60405180910390fd5b9392505050565b828054613e2990615569565b90600052602060002090601f016020900481019282613e4b5760008555613e92565b82601f10613e6457803560ff1916838001178555613e92565b82800160010185558215613e92579182015b82811115613e91578235825591602001919060010190613e76565b5b509050613e9f9190613f29565b5090565b828054613eaf90615569565b90600052602060002090601f016020900481019282613ed15760008555613f18565b82601f10613eea57805160ff1916838001178555613f18565b82800160010185558215613f18579182015b82811115613f17578251825591602001919060010190613efc565b5b509050613f259190613f29565b5090565b5b80821115613f42576000816000905550600101613f2a565b5090565b6000613f59613f548461525f565b61523a565b905082815260208101848484011115613f7157600080fd5b613f7c848285615527565b509392505050565b6000613f97613f9284615290565b61523a565b905082815260208101848484011115613faf57600080fd5b613fba848285615527565b509392505050565b600081359050613fd181615ee7565b92915050565b600081359050613fe681615efe565b92915050565b60008083601f840112613ffe57600080fd5b8235905067ffffffffffffffff81111561401757600080fd5b60208301915083602082028301111561402f57600080fd5b9250929050565b60008083601f84011261404857600080fd5b8235905067ffffffffffffffff81111561406157600080fd5b60208301915083602082028301111561407957600080fd5b9250929050565b60008135905061408f81615f15565b92915050565b6000815190506140a481615f15565b92915050565b6000813590506140b981615f2c565b92915050565b6000813590506140ce81615f43565b92915050565b6000815190506140e381615f43565b92915050565b600082601f8301126140fa57600080fd5b813561410a848260208601613f46565b91505092915050565b60008083601f84011261412557600080fd5b8235905067ffffffffffffffff81111561413e57600080fd5b60208301915083600182028301111561415657600080fd5b9250929050565b600082601f83011261416e57600080fd5b813561417e848260208601613f84565b91505092915050565b60008135905061419681615f5a565b92915050565b6000815190506141ab81615f5a565b92915050565b6000602082840312156141c357600080fd5b60006141d184828501613fc2565b91505092915050565b6000602082840312156141ec57600080fd5b60006141fa84828501613fd7565b91505092915050565b6000806040838503121561421657600080fd5b600061422485828601613fc2565b925050602061423585828601613fc2565b9150509250929050565b60008060006060848603121561425457600080fd5b600061426286828701613fc2565b935050602061427386828701613fc2565b925050604061428486828701614187565b9150509250925092565b600080600080608085870312156142a457600080fd5b60006142b287828801613fc2565b94505060206142c387828801613fc2565b93505060406142d487828801614187565b925050606085013567ffffffffffffffff8111156142f157600080fd5b6142fd878288016140e9565b91505092959194509250565b6000806040838503121561431c57600080fd5b600061432a85828601613fc2565b925050602061433b85828601614080565b9150509250929050565b6000806040838503121561435857600080fd5b600061436685828601613fc2565b925050602061437785828601614187565b9150509250929050565b6000806020838503121561439457600080fd5b600083013567ffffffffffffffff8111156143ae57600080fd5b6143ba85828601613fec565b92509250509250929050565b6000602082840312156143d857600080fd5b60006143e684828501614095565b91505092915050565b60006020828403121561440157600080fd5b600061440f848285016140aa565b91505092915050565b60006020828403121561442a57600080fd5b6000614438848285016140bf565b91505092915050565b60006020828403121561445357600080fd5b6000614461848285016140d4565b91505092915050565b6000806020838503121561447d57600080fd5b600083013567ffffffffffffffff81111561449757600080fd5b6144a385828601614113565b92509250509250929050565b6000602082840312156144c157600080fd5b600082013567ffffffffffffffff8111156144db57600080fd5b6144e78482850161415d565b91505092915050565b60006020828403121561450257600080fd5b600061451084828501614187565b91505092915050565b60006020828403121561452b57600080fd5b60006145398482850161419c565b91505092915050565b60008060006040848603121561455757600080fd5b600061456586828701614187565b935050602084013567ffffffffffffffff81111561458257600080fd5b61458e86828701614036565b92509250509250925092565b600080604083850312156145ad57600080fd5b60006145bb85828601614187565b92505060206145cc85828601614187565b9150509250929050565b60006145e283836145fd565b60208301905092915050565b6145f781615472565b82525050565b61460681615472565b82525050565b61461d61461882615472565b615615565b82525050565b600061462f8385615303565b935061463a826152c1565b8060005b85811015614673576146508284615346565b61465a88826145d6565b9750614665836152f6565b92505060018101905061463e565b5085925050509392505050565b61468981615496565b82525050565b600061469a826152e0565b6146a4818561530e565b93506146b4818560208601615536565b6146bd81615755565b840191505092915050565b60006146d3826152e0565b6146dd818561531f565b93506146ed818560208601615536565b80840191505092915050565b61470281615515565b82525050565b6000614713826152eb565b61471d818561532a565b935061472d818560208601615536565b61473681615755565b840191505092915050565b600061474c826152eb565b614756818561533b565b9350614766818560208601615536565b80840191505092915050565b6000815461477f81615569565b614789818661533b565b945060018216600081146147a457600181146147b5576147e8565b60ff198316865281860193506147e8565b6147be856152cb565b60005b838110156147e0578154818901526001820191506020810190506147c1565b838801955050505b50505092915050565b60006147fe60208361532a565b915061480982615773565b602082019050919050565b600061482160328361532a565b915061482c8261579c565b604082019050919050565b600061484460268361532a565b915061484f826157eb565b604082019050919050565b600061486760258361532a565b91506148728261583a565b604082019050919050565b600061488a601c8361532a565b915061489582615889565b602082019050919050565b60006148ad60138361532a565b91506148b8826158b2565b602082019050919050565b60006148d060248361532a565b91506148db826158db565b604082019050919050565b60006148f360198361532a565b91506148fe8261592a565b602082019050919050565b6000614916603a8361532a565b915061492182615953565b604082019050919050565b6000614939601e8361532a565b9150614944826159a2565b602082019050919050565b600061495c601d8361532a565b9150614967826159cb565b602082019050919050565b600061497f60268361532a565b915061498a826159f4565b604082019050919050565b60006149a2602c8361532a565b91506149ad82615a43565b604082019050919050565b60006149c5601d8361532a565b91506149d082615a92565b602082019050919050565b60006149e860388361532a565b91506149f382615abb565b604082019050919050565b6000614a0b602a8361532a565b9150614a1682615b0a565b604082019050919050565b6000614a2e60298361532a565b9150614a3982615b59565b604082019050919050565b6000614a5160128361532a565b9150614a5c82615ba8565b602082019050919050565b6000614a7460208361532a565b9150614a7f82615bd1565b602082019050919050565b6000614a97602c8361532a565b9150614aa282615bfa565b604082019050919050565b6000614aba60058361533b565b9150614ac582615c49565b600582019050919050565b6000614add60148361532a565b9150614ae882615c72565b602082019050919050565b6000614b0060208361532a565b9150614b0b82615c9b565b602082019050919050565b6000614b2360218361532a565b9150614b2e82615cc4565b604082019050919050565b6000614b4660008361531f565b9150614b5182615d13565b600082019050919050565b6000614b6960318361532a565b9150614b7482615d16565b604082019050919050565b6000614b8c601d8361532a565b9150614b9782615d65565b602082019050919050565b6000614baf602a8361532a565b9150614bba82615d8e565b604082019050919050565b6000614bd260188361532a565b9150614bdd82615ddd565b602082019050919050565b6000614bf5601a8361532a565b9150614c0082615e06565b602082019050919050565b6000614c18601f8361532a565b9150614c2382615e2f565b602082019050919050565b6000614c3b60178361532a565b9150614c4682615e58565b602082019050919050565b6000614c5e60018361533b565b9150614c6982615e81565b600182019050919050565b6000614c8160158361532a565b9150614c8c82615eaa565b602082019050919050565b614ca08161550b565b82525050565b6000614cb2828461460c565b60148201915081905092915050565b6000614cce828486614623565b91508190509392505050565b6000614ce682846146c8565b915081905092915050565b6000614cfd8284614741565b915081905092915050565b6000614d148285614772565b9150614d1f82614c51565b9150614d2b8284614741565b9150614d3682614aad565b91508190509392505050565b6000614d4d82614b39565b9150819050919050565b6000602082019050614d6c60008301846145ee565b92915050565b6000608082019050614d8760008301876145ee565b614d9460208301866145ee565b614da16040830185614c97565b8181036060830152614db3818461468f565b905095945050505050565b6000604082019050614dd360008301856145ee565b614de06020830184614c97565b9392505050565b6000602082019050614dfc6000830184614680565b92915050565b6000602082019050614e1760008301846146f9565b92915050565b60006020820190508181036000830152614e378184614708565b905092915050565b60006020820190508181036000830152614e58816147f1565b9050919050565b60006020820190508181036000830152614e7881614814565b9050919050565b60006020820190508181036000830152614e9881614837565b9050919050565b60006020820190508181036000830152614eb88161485a565b9050919050565b60006020820190508181036000830152614ed88161487d565b9050919050565b60006020820190508181036000830152614ef8816148a0565b9050919050565b60006020820190508181036000830152614f18816148c3565b9050919050565b60006020820190508181036000830152614f38816148e6565b9050919050565b60006020820190508181036000830152614f5881614909565b9050919050565b60006020820190508181036000830152614f788161492c565b9050919050565b60006020820190508181036000830152614f988161494f565b9050919050565b60006020820190508181036000830152614fb881614972565b9050919050565b60006020820190508181036000830152614fd881614995565b9050919050565b60006020820190508181036000830152614ff8816149b8565b9050919050565b60006020820190508181036000830152615018816149db565b9050919050565b60006020820190508181036000830152615038816149fe565b9050919050565b6000602082019050818103600083015261505881614a21565b9050919050565b6000602082019050818103600083015261507881614a44565b9050919050565b6000602082019050818103600083015261509881614a67565b9050919050565b600060208201905081810360008301526150b881614a8a565b9050919050565b600060208201905081810360008301526150d881614ad0565b9050919050565b600060208201905081810360008301526150f881614af3565b9050919050565b6000602082019050818103600083015261511881614b16565b9050919050565b6000602082019050818103600083015261513881614b5c565b9050919050565b6000602082019050818103600083015261515881614b7f565b9050919050565b6000602082019050818103600083015261517881614ba2565b9050919050565b6000602082019050818103600083015261519881614bc5565b9050919050565b600060208201905081810360008301526151b881614be8565b9050919050565b600060208201905081810360008301526151d881614c0b565b9050919050565b600060208201905081810360008301526151f881614c2e565b9050919050565b6000602082019050818103600083015261521881614c74565b9050919050565b60006020820190506152346000830184614c97565b92915050565b6000615244615255565b9050615250828261559b565b919050565b6000604051905090565b600067ffffffffffffffff82111561527a57615279615726565b5b61528382615755565b9050602081019050919050565b600067ffffffffffffffff8211156152ab576152aa615726565b5b6152b482615755565b9050602081019050919050565b6000819050919050565b60008190508160005260206000209050919050565b600081519050919050565b600081519050919050565b6000602082019050919050565b600081905092915050565b600082825260208201905092915050565b600081905092915050565b600082825260208201905092915050565b600081905092915050565b60006153556020840184613fc2565b905092915050565b60006153688261550b565b91506153738361550b565b9250827fffffffffffffffffffffffffffffffffffffffffffffffffffffffffffffffff038211156153a8576153a761566a565b5b828201905092915050565b60006153be8261550b565b91506153c98361550b565b9250826153d9576153d8615699565b5b828204905092915050565b60006153ef8261550b565b91506153fa8361550b565b9250817fffffffffffffffffffffffffffffffffffffffffffffffffffffffffffffffff04831182151516156154335761543261566a565b5b828202905092915050565b60006154498261550b565b91506154548361550b565b9250828210156154675761546661566a565b5b828203905092915050565b600061547d826154eb565b9050919050565b600061548f826154eb565b9050919050565b60008115159050919050565b6000819050919050565b60007fffffffff0000000000000000000000000000000000000000000000000000000082169050919050565b60008190506154e682615ed3565b919050565b600073ffffffffffffffffffffffffffffffffffffffff82169050919050565b6000819050919050565b6000615520826154d8565b9050919050565b82818337600083830152505050565b60005b83811015615554578082015181840152602081019050615539565b83811115615563576000848401525b50505050565b6000600282049050600182168061558157607f821691505b60208210811415615595576155946156f7565b5b50919050565b6155a482615755565b810181811067ffffffffffffffff821117156155c3576155c2615726565b5b80604052505050565b60006155d78261550b565b91507fffffffffffffffffffffffffffffffffffffffffffffffffffffffffffffffff82141561560a5761560961566a565b5b600182019050919050565b600061562082615627565b9050919050565b600061563282615766565b9050919050565b60006156448261550b565b915061564f8361550b565b92508261565f5761565e615699565b5b828206905092915050565b7f4e487b7100000000000000000000000000000000000000000000000000000000600052601160045260246000fd5b7f4e487b7100000000000000000000000000000000000000000000000000000000600052601260045260246000fd5b7f4e487b7100000000000000000000000000000000000000000000000000000000600052602160045260246000fd5b7f4e487b7100000000000000000000000000000000000000000000000000000000600052602260045260246000fd5b7f4e487b7100000000000000000000000000000000000000000000000000000000600052604160045260246000fd5b6000601f19601f8301169050919050565b60008160601b9050919050565b7f45786365656473207072652073616c65206d696e74206d6178206e756d626572600082015250565b7f4552433732313a207472616e7366657220746f206e6f6e20455243373231526560008201527f63656976657220696d706c656d656e7465720000000000000000000000000000602082015250565b7f4f776e61626c653a206e6577206f776e657220697320746865207a65726f206160008201527f6464726573730000000000000000000000000000000000000000000000000000602082015250565b7f4552433732313a207472616e736665722066726f6d20696e636f72726563742060008201527f6f776e6572000000000000000000000000000000000000000000000000000000602082015250565b7f4552433732313a20746f6b656e20616c7265616479206d696e74656400000000600082015250565b7f41646472657373206e6f7420696e206c69737400000000000000000000000000600082015250565b7f4552433732313a207472616e7366657220746f20746865207a65726f2061646460008201527f7265737300000000000000000000000000000000000000000000000000000000602082015250565b7f4552433732313a20617070726f766520746f2063616c6c657200000000000000600082015250565b7f416464726573733a20756e61626c6520746f2073656e642076616c75652c207260008201527f6563697069656e74206d61792068617665207265766572746564000000000000602082015250565b7f45786365656473207075626c6963206d696e74206d6178206e756d6265720000600082015250565b7f416464726573733a20696e73756666696369656e742062616c616e6365000000600082015250565b7f416464726573733a20696e73756666696369656e742062616c616e636520666f60008201527f722063616c6c0000000000000000000000000000000000000000000000000000602082015250565b7f4552433732313a206f70657261746f7220717565727920666f72206e6f6e657860008201527f697374656e7420746f6b656e0000000000000000000000000000000000000000602082015250565b7f496e73756666696369656e7420746f6b656e732072656d61696e696e67000000600082015250565b7f4552433732313a20617070726f76652063616c6c6572206973206e6f74206f7760008201527f6e6572206e6f7220617070726f76656420666f7220616c6c0000000000000000602082015250565b7f4552433732313a2062616c616e636520717565727920666f7220746865207a6560008201527f726f206164647265737300000000000000000000000000000000000000000000602082015250565b7f4552433732313a206f776e657220717565727920666f72206e6f6e657869737460008201527f656e7420746f6b656e0000000000000000000000000000000000000000000000602082015250565b7f4e6f6e2d6578697374656e7420746f6b656e0000000000000000000000000000600082015250565b7f4552433732313a206d696e7420746f20746865207a65726f2061646472657373600082015250565b7f4552433732313a20617070726f76656420717565727920666f72206e6f6e657860008201527f697374656e7420746f6b656e0000000000000000000000000000000000000000602082015250565b7f2e6a736f6e000000000000000000000000000000000000000000000000000000600082015250565b7f5072652073616c65206973206e6f74206f70656e000000000000000000000000600082015250565b7f4f776e61626c653a2063616c6c6572206973206e6f7420746865206f776e6572600082015250565b7f4552433732313a20617070726f76616c20746f2063757272656e74206f776e6560008201527f7200000000000000000000000000000000000000000000000000000000000000602082015250565b50565b7f4552433732313a207472616e736665722063616c6c6572206973206e6f74206f60008201527f776e6572206e6f7220617070726f766564000000000000000000000000000000602082015250565b7f416464726573733a2063616c6c20746f206e6f6e2d636f6e7472616374000000600082015250565b7f5361666545524332303a204552433230206f7065726174696f6e20646964206e60008201527f6f74207375636365656400000000000000000000000000000000000000000000602082015250565b7f496e636f7272656374204554482076616c75652073656e740000000000000000600082015250565b7f496e73756666696369656e7420746f6b656e2072657365727665000000000000600082015250565b7f5265656e7472616e637947756172643a207265656e7472616e742063616c6c00600082015250565b7f5075626c69632073616c65206973206e6f74206f70656e000000000000000000600082015250565b7f2f00000000000000000000000000000000000000000000000000000000000000600082015250565b7f41646472657373657320617272617920656d7074790000000000000000000000600082015250565b60038110615ee457615ee36156c8565b5b50565b615ef081615472565b8114615efb57600080fd5b50565b615f0781615484565b8114615f1257600080fd5b50565b615f1e81615496565b8114615f2957600080fd5b50565b615f35816154a2565b8114615f4057600080fd5b50565b615f4c816154ac565b8114615f5757600080fd5b50565b615f638161550b565b8114615f6e57600080fd5b5056fea2646970667358221220285cacf651156647b479441a68e6f6e082c8d157d0699052752be10fcb82556d64736f6c63430008040033",
  "linkReferences": {},
  "deployedLinkReferences": {}
}